:10000000F8FF002011040000932400009324000056
:100010009324000093240000932400009324000004
:1000200093240000932400009324000093240000F4
:1000300093240000932400009324000093240000E4
:1000400093240000932400009324000093240000D4
:10040000FFFFFFFFFFFFFFFFFFFFFFFFFEFFFFFFFD
:1004100062B607F067FCFEE780B50120DFF8E81759
:10042000086000F034F8DFF8E0070068002803D027
:1004300000F0FCFB00F08DFBDFF8D007006800281F
:1004400022D03A200A281FDB0A2803D10021DFF836
:10045000BC271160DFF8B81751F82010DFF8B0277B
:1004600002EB80025268891A01290DDADFF8A4171D
:1004700051F82010DFF89C2702EB80025268891A9D
:10048000002901D4401EDDE700F0FEFE01BD2DE98C
:10049000F04F91B0DFF880070068002802D000F02C
:1004A00039FE53E33B24362C33DB2821200001F0B6
:1004B00001F9DFF85C1741F824002821200001F041
:1004C000E8F8DFF8501741F82400DFF8440750F847
:1004D0002400DFF8401751F8241008184010DFF806
:1004E0003C1741F82400DFF8280750F82400DFF813
:1004F000241751F82410401ADFF8241741F824007B
:10050000200001F081F9DFF81C1741F82400641E77
:10051000C9E73525002D00F11983DFF8F40600EB5B
:1005200085004268DFF8EC0600EB85004168280092
:1005300001F011F90400206800282CD1DFF8DC0656
:1005400000EB85004068292801DB4F2000E00020F7
:10055000002D1FD4DFF8C41641F82500DFF8B416CB
:1005600041F82500DFF8A81641F82500DFF8A016AD
:1005700051F82510DFF89C2652F82520891ADFF85B
:10058000A02642F825100021DFF8982642F8251011
:100590006D1EDDE7DAE2206802282CD16068DFF802
:1005A000741641F82500A068DFF8641641F82500AC
:1005B000DFF85C0650F82500DFF8581651F82510D2
:1005C00008184010DFF8541641F82500DFF84006FF
:1005D00050F82500DFF83C1651F82510401ADFF8D6
:1005E000401641F82500280001F00EF9DFF8341616
:1005F00041F82500A8E2206809280FDB00F08AFDF9
:10060000DFF82406006840F6B931884205DB242D66
:1006100003DB0120DFF80016086097E2142DC0F21A
:1006200087816068002800F08381206854F82000EA
:100630004F2800F07D81206806280AD12069E168F2
:10064000401A0C2805DAA06920616069E060042086
:100650002060A0686168401A112805DB2069E16804
:10066000401A112880F264816068DFF8A81501EB58
:1006700085014968401A01F08BF9032880F25881FE
:100680002069DFF88C1501EB85014968401A01F0FB
:100690007FF9032880F24C81DFF8840500EB8500A8
:1006A0004068372880F24481A0686168401A01F0F0
:1006B00073F906002069E168401A01F06DF9010044
:1006C000300001F081F95FF07C5101F0FBF90BD3B0
:1006D000A0686168401A112880F288802069E1686A
:1006E000401A1128C0F28280DFF8200A5021E26807
:1006F00001FB0521084410F8500C012803D1E068E3
:10070000401CE060F0E7E068C01CDFF8081541F825
:1007100025002069DFF8F81441F82500DFF8F0041F
:1007200050F82500DFF8EC1451F825100818401097
:10073000DFF8E81441F82500DFF8D40450F825006C
:10074000DFF8D01451F82510401ADFF8D41441F81E
:1007500025000120DFF8CC1441F82500681C3C2856
:1007600043DADFF8B01401EB800151F8041C491E94
:10077000DFF8A02452F82020914236DBDFF89414F1
:1007800001EB800151F8041CDFF8882442F82010A6
:10079000022190FBF1F201FB1201002908D0DFF8E1
:1007A000741451F82010491EDFF8682442F8201014
:1007B000DFF85C1451F82010DFF8582452F820209C
:1007C00051184910DFF8542442F82010DFF8401483
:1007D00051F82010DFF83C2452F82020891ADFF865
:1007E000402442F82010401CB9E7ADE1A0686168E0
:1007F000401A01F0D1F806002069E168401A01F0C2
:10080000CBF80100300001F0DFF8DFF8041901F047
:100810006BF90BD9A0686168401A1128C0F2888072
:100820002069E168401A112880F28280DFF8DC0834
:100830005021A26801FB0521084410F8500C012842
:1008400003D1A068401EA060F0E76068DFF8C41321
:1008500041F82500A068C01EDFF8B41341F8250058
:10086000DFF8AC0350F82500DFF8A81351F8251085
:1008700008184010DFF8A41341F82500DFF89003B2
:1008800050F82500DFF88C1351F82510401ADFF8D6
:10089000901341F825000120DFF8881341F8250066
:1008A000681C3C2843DADFF8681351F82010DFF8A1
:1008B000602302EB800252F8042C521C914236DB7A
:1008C000DFF84C1301EB800151F8041CDFF84023E2
:1008D00042F82010022190FBF1F201FB12010029E5
:1008E00008D0DFF82C1351F82010491CDFF8202322
:1008F00042F82010DFF8181351F82010DFF8142305
:1009000052F8202051184910DFF8102342F8201027
:10091000DFF8FC1251F82010DFF8F82252F82020FE
:10092000891ADFF8FC2242F82010401CB9E70BE1DD
:1009300000266F1C3C2F19DADFF8E80250F8270078
:10094000002811D0DFF8D40250F8270001F024F875
:100950000AA941F82600380001F01EF804A941F860
:100960002600761C062E01DA7F1CE3E70027052E01
:1009700002DA2820070028E00B980AA901EB86017B
:1009800051F8041C01F0C2F88046280001F004F878
:10099000059901F0BBF8414601F02CF98046059815
:1009A00004A901EB860151F8041C01F0AFF8010025
:1009B000404601F009F80AA901EB860151F8041C30
:1009C00001F084F901F0C4F90700B7F1280000F044
:1009D000DFFF102819DA282F17D0A0686168401AA5
:1009E000102812DB2069E168401A10280DDBDFF8BF
:1009F0001C07502101FB0571405C012805D1012035
:100A0000DFF80812086001F074FA4FF47A70009071
:100A1000DFF858080068012802D10820029002E09F
:100A20007FF007000290DFF844080068012802D137
:100A30000C20019002E07FF00B0001905FF00108B4
:100A40002068804580F2808054F8289004EB88006C
:100A5000D0F804A0BAEB09000390BAEB090005280E
:100A600005DAB9F1000F02D0BAF14F0F69D1B9F12F
:100A7000000F02D0BAF14F0F0DD1BAEB09001428C4
:100A800009DAB9F1000F03D1BAF11400814602E08E
:100A900019F1140082461AEB0900022190FBF1FBC8
:100AA000BBEB070000F074FF0099029A51188842CE
:100AB0000CDBBBEB070000F06BFF0099019A5118AB
:100AC00088423EDABAEB090018283ADBBBEB070094
:100AD00000F05EFF0090B9F1000F01D4484600E03D
:100AE0000020DFF8301141F82500BAF1500F01DA8B
:100AF000504600E04F20DFF8181141F82500DFF8DC
:100B0000100150F82500DFF80C1151F825100818D5
:100B1000022190FBF1F0DFF8041141F82500DFF825
:100B2000F00050F82500DFF8EC1051F82510401ABD
:100B3000DFF8EC1041F825000120DFF8E81041F85B
:100B4000250018F102087BE76D1EE3E411B0BDE853
:100B5000F08FF8B53B26002E42D4DFF8C80050F8DD
:100B60002600002803D0012E01DB761EF5E7002EBB
:100B700036D0701C04003A2E07DA2A4800EB8600B3
:100B80008068002801D0B01C04003C2C01DB3B2015
:100B90000400244850F82600002803D1012E01DB70
:100BA000761EF6E7002E1BD004273800471E0028CB
:100BB00009D0761E002E06D01A4800EB860050F8A9
:100BC000040C0028F1D135002A002100114800F062
:100BD00036FD2A0021000E4800F031FD761EBAE7EE
:100BE0003B2000280ED40B4951F82010084A52F837
:100BF00020205118022291FBF2F1084A42F82010FD
:100C0000401EEEE7F1BD00004C2FFF1F482FFF1FD5
:100C1000982AFF1F882BFF1F5C48FF1F782CFF1F9F
:100C2000682DFF1F582EFF1F5048FF1F2DE9F84366
:100C3000DFF840060068012806DBDFF838060068A8
:100C4000401EDFF830160860DFF82806006800282C
:100C500006D5DFF820060068401CDFF8181608608B
:100C60003B27DFF80C0650F8270000280DD0DFF8EE
:100C7000080650F827004F2807D0DFF8000650F884
:100C80002700002801D07F1EEBE7282FC0F23B820F
:100C9000BF1E0024002500260020012F3BDB072873
:100CA00039DA002C01D0002D35D1DFF8D01551F8FC
:100CB00027102143002900D13C00DFF8BC1551F872
:100CC00027104F2902D1002D00D13D00DFF8AC15CF
:100CD00051F82710491CDFF8A42502EB870252F8CF
:100CE000042C914201DA002C0ED0DFF88C1501EBB8
:100CF000870151F8041CDFF8802552F82720521E86
:100D0000914205DA002D03D1761C022E80F2FB8180
:100D10007F1E401CC1E7002F62D4002C01D0002DA3
:100D20003FD1002C1DD0DFF8500550F82700DFF828
:100D3000481501EB87014968401A152801DB01209D
:100D400000E00020C0B200F023FE002809D0DFF848
:100D5000280550F82700DFF8241551F8271088429D
:100D60001FD1002D1ED0DFF8140550F82700DFF842
:100D70000C1501EB87014968401A152801DB012099
:100D800000E00020C0B200F003FE00280AD0DFF827
:100D9000E80450F82700DFF8E41451F827108842DF
:100DA00000D01DE0DFF8D40450F8270020430028CD
:100DB00000D13C00DFF8C00450F827004F2802D1D2
:100DC000002D00D13D00DFF8B00450F82700DFF817
:100DD000AC1451F82710884200F095817F1E9AE7E5
:100DE000152FC0F290815FF00008012F45DBDFF87E
:100DF0008C0450F8270000280BD0DFF87C0450F852
:100E000027004F2805D018F10108B8F1030F00F0B2
:100E10007A81DFF8680400EB8700406800280BD077
:100E2000DFF8580450F82700DFF8501401EB870171
:100E30004968401A1A2813DADFF83C0400EB8700EF
:100E400040684F280DD0DFF8300450F82700DFF855
:100E5000281401EB87014968401A10F1190F00DAD4
:100E600051E1DFF8180450F82700DFF80C1451F8AE
:100E70002710884201D07F1EB7E7DFF8F80300682B
:100E8000002806D1DFF8F803D0F8EC003D2880F206
:100E90003A8101F02EF8DFF8DC03006800280FD15A
:100EA000DFF8E0030068002804D10220DFF8C41353
:100EB000086018E07FF00100DFF8B813086012E066
:100EC000DFF8B0030068012803DB0420DFF8A41377
:100ED0000860DFF8A0030068002804D57FF0030055
:100EE000DFF8901308603A200700E14850F8270027
:100EF00000280DD0DFF8800350F827004F2807D0D6
:100F0000DFF8780350F82700002801D07F1EECE7B7
:100F1000DFF860030068012877DB5FF00009012F2C
:100F200073DBDFF8540300EB870040684F2801D1E2
:100F30004F2003E04F21380000F0EFFBDFF83813BB
:100F400041F82700DFF8300350F82700811E3800F1
:100F500000F09FFBDFF8241341F82700DFF81C03A3
:100F600050F82700DFF8141301EB87014968884225
:100F700008DADFF8080300EB87004068DFF8FC12AE
:100F800041F82700DFF8F00250F82700DFF8EC12F4
:100F900051F8271008184010DFF8E81241F8270030
:100FA000DFF8D40250F82700DFF8D01251F82710EC
:100FB000401ADFF8CC1241F82700B9F1000F1FD119
:100FC000DFF8B80250F82700DFF8B01201EB870114
:100FD0004968401A152811DADFF8A40250F82700F2
:100FE00014280BDBDFF8900250F827004F2807D1B8
:100FF000DFF8880250F82700152801DB0120814620
:101000009B4840F827907F1E89E7DFF86802006858
:10101000002878D55FF00009012F74DBDFF85C024F
:1010200000EB87004068002801D1002003E0002188
:10103000380000F050FBDFF8441241F82700DFF8D9
:101040003C0250F82700811C380000F033FBDFF829
:10105000281241F82700DFF8200200EB87004068E3
:10106000DFF8141251F82710884208DADFF8080276
:1010700000EB87004068DFF8001241F82700DFF836
:10108000F80150F82700DFF8F41151F8271008187C
:101090004010DFF8F01141F82700DFF8DC0150F8CC
:1010A0002700DFF8D81151F82710401ADFF8D011C7
:1010B00041F82700B9F1000F20D1DFF8BC0150F84A
:1010C0002700DFF8B41101EB87014968401A10F1DD
:1010D000140F11DBDFF8A80150F8270014280BDBF0
:1010E000DFF8980150F82700002807D1DFF88801C1
:1010F00050F827003B2801DA012081465C4840F87F
:1011000027907F1E88E7BDE8F1830000542FFF1F62
:101110000100004070B50020DFF8081208603B2491
:10112000362C52DB4F260025DFF8FC01502101FB55
:101130000461405C002803D1002E01D4761EF3E741
:10114000DFF8E401502101FB0451405C002803D189
:101150003C2D01DA6D1CF3E7282E01DA4F20060042
:10116000292D01DB002005003100200000F0D5FA18
:10117000DFF8041141F824002900200000F0ABFA48
:10118000DFF8F81041F82400DFF8EC0050F82400F4
:10119000DFF8E81051F8241008184010DFF8E410C8
:1011A00041F82400DFF8D00050F82400DFF8CC101C
:1011B00051F82410401ADFF8C81041F8240001202B
:1011C0002B4941F82400641EAAE73524002C38D4AA
:1011D000DFF8A40000EB84004168200000F09DFAD5
:1011E000DFF8941041F82400DFF8900000EB840051
:1011F0004168200000F06FFADFF8801041F8240009
:10120000DFF8740050F82400DFF8701051F8241053
:1012100008184010DFF86C1041F82400DFF858007F
:1012200050F82400DFF8541051F82410401ADFF869
:10123000501041F8240001200D4941F82400641E9B
:10124000C4E7DFF8E8000068002806D0DFF858039C
:101250000068401EDFF850130860DFF84C03006898
:10126000002801D100F01CFE70BD0000E805FF1F42
:10127000582EFF1F502FFF1F982AFF1F882BFF1F7C
:10128000682DFF1F782CFF1F10B400203C2846DA81
:1012900025495022DFF8BC3653F8203002FB0032DB
:1012A000895C002901D1012100E000211E4A502360
:1012B000DFF8A04654F8204003FB0043D1541A49FC
:1012C0005022DFF8403553F8203002FB0032895CB1
:1012D000002901D1012100E00021134A5023DFF849
:1012E000244554F8204003FB0043D1540E495022BA
:1012F000DFF8643653F8203002FB0032895C0029A5
:1013000001D1012100E00021074A5023DFF84846BF
:1013100054F8204003FB0043D154401CB6E710BCF6
:10132000704700004C2FFF1F542FFF1F5C48FF1F0A
:101330002DE9F047A4B0DFF824060468DFF82006A2
:101340000068844204DADFF818060068040008E048
:10135000DFF80C064069A04203DADFF804064069B2
:101360000400002500200600052E28DADFF8F0052D
:1013700050F82600844220DBDFF8E40500EB86000D
:101380004068A04219DBDFF8D80550F82600201A83
:1013900000F002FB0700DFF8C80500EB860040689C
:1013A000DFF8BC1551F82610401A00F0F5FA0100DC
:1013B000380000F009FB050001E0761CD4E70027A7
:1013C000052F2BDADFF89C05142101FB06F10844F8
:1013D00050F8270000F0E0FA8046DFF88805142175
:1013E00001FB06F1084400EB87004069DFF8741543
:1013F000142202FB06F2114451F82710401A00F0A3
:10140000CBFA290000F0F6FB414600F05FFC00F04B
:101410009FFC694641F827007F1CD1E70020052882
:101420001FDA694651F82010491E14AA0C2303FB49
:1014300000F3D150694651F8201014AA032303FB8E
:1014400000F302EB83025160694651F82010491CF9
:1014500014AA032303FB00F302EB83029160401CF8
:10146000DDE7DFF804050768DFF80005006887425C
:1014700004DADFF8F8040068070008E0DFF8E004A9
:10148000C069B84203DADFF8D804C0690700002059
:10149000050000200600072E28DADFF8D00450F8F7
:1014A0002600874220DBDFF8C40400EB860040689A
:1014B000B84219DBDFF8B40450F82600381A00F0FF
:1014C0006BFA8046DFF8A40400EB86004068DFF882
:1014D0009C1451F82610401A00F05EFA01004046B4
:1014E00000F072FA050001E0761CD4E75FF0000816
:1014F000B8F10F0F25DADFF878043C2101FB06F183
:10150000084400EB8800C06BDFF864143C2202FB47
:1015100006F2114451F8281000F0F8FA290000F002
:1015200069FBDFF84C143C2202FB06F2114451F82F
:10153000281000F0CBFB05A941F8280018F101089C
:10154000D6E75FF000085FF000095FF0000ABAF12B
:101550000F0F1FDADFF8FC0314A951F82A104942D3
:1015600000EB8100D0F8F000283800F015FA05A94A
:1015700051F82A1000F03EFB494600F0A7FB8146D7
:1015800005A850F82A00414600F0A0FB80461AF159
:10159000010ADCE7484690F00040414600F014FAAA
:1015A00024B0BDE8F0870000F005FF1F0120704760
:1015B00030B40020B0F5167F1FDADFF8B813095CED
:1015C0000022082A17DAC9B2D2F107030C001C4125
:1015D000E30708D5DFF8A03312EBC0041B5D002B36
:1015E00001D1012300E00023DFF8904312EBC00596
:1015F0006355521CE5E7401CDCE70120DFF880134F
:10160000086030BC704710B40020B0F5167F14DAC3
:1016100000210022082A0BDADFF8603312EBC00445
:101620001B5DD2F10704A34053FA81F1521CF1E78C
:10163000DFF850231154401CE7E710BC704770B42A
:101640008A4224DA4B1E9A4221DA50F8214050F89F
:10165000225050F82160AD1B5E1A7543561A95FB57
:10166000F6F52C19664DA84204D1654D55F8235066
:10167000A54207DBB64DA84205D1B54D55F823501C
:10168000AC4200DA01E040F823405B1EDBE770BCAF
:1016900070470200002901D100200AE0B74850231A
:1016A00003FB0213C05C002802D1491E0029F5D1BA
:1016B0000800704702004F2901D14F200AE0AF48CF
:1016C000502303FB0213C05C002802D1491C4F29A0
:1016D000F5D10800704738B504000D004F2D01D139
:1016E0004F2019E0A548502101FB0451405C00281F
:1016F00004D129002000FFF7CCFF0DE09F485021C6
:1017000001FB0451405C012805D14F2D01D14F2030
:1017100002E06D1CF2E7681E32BD38B504000D0012
:101720009648502101FB0451405C002804D1290057
:101730002000FFF7BFFF0DE09048502101FB04514E
:10174000405C012805D1002D01D1002002E06D1E72
:10175000F2E7681C32BD2DE9F04104000D001600CF
:101760000027A8468548502101FB0451405C002811
:1017700016D129002000FFF78CFF834901EB870178
:1017800048607F1C29002000FFF794FF7E4901EB91
:10179000870148607F1C7C4850F82700401C804629
:1017A000464526DB41462000FFF795FF764901EBD1
:1017B00087014860744800EB87004068104901EBDE
:1017C00084014968884214DA7F1C6F4850F827006A
:1017D000411C2000FFF76EFF6B4901EB8701486059
:1017E0007F1C694850F82700401C804618F101080A
:1017F000D6E7654807606448BDE8F0810000000056
:10180000982AFF1F882BFF1F10B50400362C3CDBE5
:101810003B2C07DA5D4800EB84004068002801D1CA
:10182000002092E04A4850F82400002806D14A4897
:1018300050F824004F2801D1002086E03B2C09DA23
:10184000424850F82400414901EB84014968401A9C
:10185000022816DA3A2C16DA3C4850F824003B49A4
:1018600001EB84014968401A01280CDB374800EB82
:1018700084004068354901EB84018968401A0128D9
:1018800001DB002061E001205FE0404800EB8400C4
:101890004068002832D0304850F824002E4901EB2F
:1018A00084014968401A00F073F8052826DA2848B0
:1018B00050F82400264901EB84014968401A00F0E1
:1018C00067F805281ADA214850F824001F4901EB6F
:1018D00084014968401A022810DA1C4850F8240094
:1018E0001A4901EB84014968401A042806DA1748AE
:1018F00050F82400282801DA012026E02D2C23DAD4
:10190000124800EB8400C068104901EB840189682B
:10191000884219DB0D4800EB840080680B4901EB1D
:101920008401496888420FDB084800EB8400406866
:10193000064951F82410884206DB044850F8240078
:10194000232801DA012000E0002010BD682DFF1FD0
:10195000882BFF1F782CFF1F982AFF1FAC13FF1F37
:101960006C06FF1FF405FF1F2045FF1F6408FF1FC3
:101970008406FF1FC013FF1F1816FF1F542FFF1FE1
:10198000942AFF1F1442FF1F6C44FF1F582EFF1F95
:10199000002848BF40427047002840F10780F446C5
:1019A000404200F003F850F0004060470AD0B0FA1F
:1019B00080F18840D1F19D01C905020672F1004213
:1019C00041EB1020704701FE10B5FF2313EAD054FD
:1019D0001DBF13EAD1529C429A4239E0A41ADA0799
:1019E00080EA0103134042EA012142EA0020421A40
:1019F0003CBF641E01EB4202090AB2FBF1FE01FB8F
:101A00001E221202B2FBF1F001FB10226EF30F2036
:101A10001202B2FBF1FE4EEA00207F3406DDFE2CFE
:101A200024DA53EA500050EBC45010BDD4F1020444
:101A300001FB1E2240F08071192C1DDC21FA04F0FC
:101A4000C4F12004A140114371F10042584110BD7E
:101A50009C421ABF03EAD1529A420FE080EA010E7B
:101A60000EF00043400004D0490016D143F0FF407F
:101A700010BD490008BFD343180010BD9C4205D1DA
:101A8000D21AF7D001F00041484010BD4A0212BFFF
:101A90000846484000F0004010BD4AB90902B1FABA
:101AA00081F2914044B1A418C00140F000409EE78B
:101AB000C90141F0004152420002B0FA80F4A04056
:101AC000141B94E74FF0807C1CEB400F94BF1CEB81
:101AD000410F05E040EA010C5FEA4C0C01D288425C
:101AE000704718BF814270474FF0807C1CEB400F5D
:101AF00094BF1CEB410F05E040EA010C5FEA4C0C7F
:101B000001D28142704718BF8842704790EA010FA6
:101B100044BF81F0004100F0E1B800BF431A4FF02C
:101B200000423EBF5340C01AC91800BFD3095FEA44
:101B3000D05C13EB400F34BFB3EB410F40E07CEBC4
:101B4000D1530CD342EA012122D8D1EB402009D352
:101B5000400A28BF5FEA500140EBCC507047401A62
:101B600015D04002B0FA80F2521C9040400A4FEA71
:101B70003C23B3EB026384BF00EB730007E040F447
:101B800000001A16DB07C2F10102D040184370476B
:101B9000182BFCDC31FA03F202FA03F3591A38BFAE
:101BA00042F00102D2EB40203CBF4000ACF1010CFE
:101BB0005FEACC5CC20572F100414CEB50207047EB
:101BC00013EB400F0FD24B0009D0ACEBD153022BDB
:101BD00003DB4902172BDDDD70479143401A4300B8
:101BE000D5D10020704713EB410FD0D36FF0000028
:101BF0007047FE01FF2212EAD05C1DBF12EAD153EA
:101C0000944593422BE09C44D30780EA01021A409A
:101C100043EA002043EA0121A1FB0030410038BF24
:101C200040007CF17F010BDBFE294ADA5B0842EAC7
:101C3000C15153EA006373F1004C51EB102070471F
:101C4000D1F1080CDCF120012FDB5B0810FA01F167
:101C50000B4373F1004120FA0CF05041704794455A
:101C60001CBF02EAD153934280EA010202F0004213
:101C70001DD0400019D0490017D05BB9634514D07E
:101C80000902B1FA81F39940BCEB030CC00140F0AA
:101C90000040C1E70002B0FA80FC10FA0CF0B3EB90
:101CA0000C0CC90141F00041B6E71000704740003C
:101CB0000AD0490008D010F1807F94BF11F1807FD5
:101CC00002E042F0FF407047D043704790EA010FB6
:101CD00044BF81F00041FFF721BF00BF421A3CBF63
:101CE000801A89184FF0004CC0F3C752FF2A24D045
:101CF000C1F3C75313B3D21AD2F1190327DD4CEA4B
:101D000001214CFA03F321EA0303D140C20D4CEA4E
:101D10000020401834BF20EA0C004CEA5000D205E5
:101D200053EA006373EB0C0C52EB1020420012F1EB
:101D3000807F38BF7047C00DC0057047490212BF91
:101D40009A4200EB5120F8E7D2F11703D9D570473A
:101D50004100090E7F3915D4D1F11F0114D4400080
:101D600007D2C00140F00040C84048BF6FF00040BB
:101D70007047C00140F00040C8404CBF4FF00040E9
:101D8000404270470020704700424FF0004058BF6B
:101D9000C0437047012110F01F0291405D4A40B2DC
:101DA000430942F823107047012110F01F029140AF
:101DB000594A40B2430942F82310704710B440B268
:101DC000002808D50A01554B40B210F00F042344F7
:101DD00003F8042C03E00A01514B40B21A5410BC22
:101DE000704780B54F480068052101FB00F10020D5
:101DF00000F0A8F80FF23D01542000F0F2F80020A6
:101E0000494908600F214420FFF7D8FF0022012133
:101E1000462000F0FDF800204449086000204449B5
:101E2000086001BD40490860704780B54420FFF755
:101E3000B1FF01BD80B53C480068002818D03A4881
:101E40000068804739480068401C384908603948B4
:101E5000006800280CD036480068401C34490860EF
:101E600033480068B0F5FA7F02D10120324908609A
:101E70003248006800280CD030480068401E2F49C6
:101E800008602E480068002803D10021462000F099
:101E900016F92B48006850F001002949086001BD7F
:101EA00080B54420FFF780FF0021002000F0B7F943
:101EB0004FF4FA7000F031FA002000F056FA0120D9
:101EC00000F053FA022000F050FA032000F04DFA1F
:101ED0004FF4FA7000F021FA002000F04FFA0120D0
:101EE00000F04CFA022000F049FA032000F046FA14
:101EF000DAE780B50520114908600121462000F08D
:101F0000DEF801BD80B501200A490860002000F01C
:101F10002CFA01BD00E100E080E100E018ED00E0F6
:101F200000E400E07048FF1F6048FF1F4C48FF1F9F
:101F30005048FF1F5848FF1F5448FF1F6448FF1FA9
:101F40000C71034038B504000D00002D03D122218F
:101F5000174800F034FA1748006850F4000015499B
:101F60000860002014490860681E144964B2220108
:101F70008850124864B221010844C06850F0010042
:101F80000E4964B222011144C8600C4864B22101B8
:101F90000844806840084000084964B222011144A6
:101FA00088600320054964B222011144886031BD74
:101FB0000C8000003C80044000700340007103402E
:101FC00010B504004FF4007094FBF0F100FB1140D9
:101FD000002803D01E210B4800F0F1F90A480460E4
:101FE00010BD38B504000D00074800680749884255
:101FF00003D03021034800F0E2F9044864B240F80D
:10200000245031BD9C80000008ED00E00000FF1F5F
:1020100070B504000D0016004FF480712000C0B2AE
:1020200000F062FA6DB2002D11D15E48E4B2611188
:1020300050F821005B49E4B2621151F8221049695D
:10204000012214F01F039A409143416136E0554844
:10205000E4B2611150F821005249E4B2621151F822
:1020600022104969012214F01F039A401143416173
:10207000F6B2002E11D14B48E4B2611150F82100A4
:102080000068012114F01F02914088434549E4B2E1
:10209000621151F82210086010E04248E4B2611168
:1020A00050F821000068012114F01F0291400843FC
:1020B0003C49E4B2621151F82210086070BD38B595
:1020C00004000D003748E4B2611150F82100406966
:1020D00014F01F01C840C00703D46321324800F048
:1020E0006EF9EDB2002D11D12E48E4B2611150F815
:1020F00021000068012114F01F0291408843294902
:10210000E4B2621151F82210086010E02548E4B2F0
:10211000611150F821000068012114F01F02914064
:1021200008432049E4B2621151F82210086031BD21
:1021300010B504001B48E4B2611150F82100406959
:1021400014F01F01C840C00703D47B21164800F0DB
:1021500036F91448E4B2611150F82100012114F05D
:102160001F029140C16010BD10B504000D48E4B2DB
:10217000611150F82100406914F01F01C840C007E8
:1021800003D58C21084800F01AF90648E4B2611121
:1021900050F82100006914F01F01C84010F0010040
:1021A00010BD0000B80FFF1FC47F000080B5C8231A
:1021B00042F210720321002000F0C8FAC82342F254
:1021C00010720421002000F0C1FAC82342F21072FC
:1021D0000521002000F0BAFAC82342F2107206214D
:1021E000002000F0B3FAC82342F210720021002050
:1021F00000F0ACFA01BD10B5040037480460364861
:10220000006836490968091833480068334A12687B
:10221000801A00F004F810BD30490860704738B5E6
:1022200004000D0064426D4242F25540844203DBDB
:1022300042F25440040004E02948844201DA28486C
:10224000040042F25540854203DB42F2544005004F
:1022500004E02348854201DA21480500012C11DB06
:1022600014F1C8020321002000F049FB14F1C80258
:102270000021002000F043FBC8220421002000F0D0
:102280003EFB0FE0C8220321002000F038FBC822EB
:102290000021002000F033FBD4F1C802042100200B
:1022A00000F02DFB012D0BDB15F1C80205210020EC
:1022B00000F025FBC8220621002000F020FB0AE0E8
:1022C000C8220521002000F01AFBD5F1C802062122
:1022D000002000F014FB31BD1845FF1F1C45FF1FF7
:1022E000ACDBFFFF10B50400002C15D0B4F1807FEB
:1022F00003D329210F4800F062F800200E4908603E
:102300000E48046000200E49086005200A49086054
:1023100009480068C003FBD510BD10B504002000BB
:10232000441E002804D007480068FFF7DBFFF6E7EB
:1023300010BD0000A07E000010E000E014E000E00E
:1023400018E000E06848FF1F10B50024062C0BDAE7
:102350000F48005DA02805D0012201210C48005D36
:10236000FFF756FE641CF1E710BD10B50400002114
:10237000074864B2005DFFF7A2FE10BD10B504006F
:102380000121034864B2005DFFF799FE10BD000013
:102390008C08FF1FDFF800F0B111FF1FDFF800F01D
:1023A000D511FF1FBFF34F8F4748006810F4E0605E
:1023B0004649084344490860BFF34F8FFEE738B5EC
:1023C00004000D00002000F0E7FB2A002100404837
:1023D00000F01AFC002000F0FCFB4FF47A70FFF7CD
:1023E0009CFFF2E738B504000D00210049B204203B
:1023F00000F026FD200032BD10B50024042000F0BE
:102400004BFD042000F07EFD002841D1002000F0AB
:10241000C3FB042000F076FD012801D10120040057
:10242000002000F0D6FB2B4800F0EEFB4FF4FA70D2
:10243000FFF773FFE4B2012CEBD1042000F062FD42
:102440000028E6D1042000F05DFD002806D1002020
:1024500000F0BFFB6420FFF760FFF3E7042000F00B
:1024600051FD012806D1002000F0B3FB3220FFF718
:1024700054FFF3E7184800F0C7FBFFF78BFF642019
:10248000FFF74BFF0020FFF789FFFFF78BFFC0E747
:1024900010BD10B511480468012000F07DFB01203B
:1024A00000F097FB0E48E4B20F2101FB04F100EBB2
:1024B0000102E4B221000B4800F0A6FB4FF47A7051
:1024C000FFF72BFFEBE700000CED00E00400FA053E
:1024D00014820000608300009082000004ED00E0A0
:1024E000A008FF1F2081000010B42B4A13684FF48E
:1024F00000740200D2B2520914FA02F21A43264BB7
:102500001A60264AC0B2431152F82320012310F06A
:102510001F04A340C2F8A030204AC0B2431152F8B1
:102520002320C0B210F01F0342F8231010BC7047E4
:1025300010B4194A13684FF400740200D2B2520961
:1025400014FA02F21A43144B1A60144AC0B243112F
:1025500052F82320012310F01F04A340C2F8A0303A
:1025600031F4E0610D4AC0B2431152F82320C0B2E9
:1025700010F01F0352F8232012F4E0621143074ABF
:10258000C0B2431152F82320C0B210F01F0342F82A
:10259000231010BC70470000388004402810FF1F33
:1025A00038B504000D0064B2002C06D0022C69D0AE
:1025B0004CD3032C00F08280C7E0DFF8C40500682C
:1025C00050F08070DFF8B81508606DB2002D0BD0A8
:1025D000022D15D00ED3042D1ED017D3062D27D0D3
:1025E00020D3072D2AD02FE04FF480614120FFF740
:1025F0007BFF2AE04FF480614220FFF775FF24E063
:102600004FF440710520FFF76FFF1EE04FF440715B
:102610000620FFF769FF18E04FF440710720FFF72D
:1026200063FF12E04FF480616520FFF75DFF0CE06F
:102630004FF480616620FFF757FF06E04FF480619A
:102640006720FFF751FF00E07FE07EE0DFF8300514
:10265000006850F00070DFF8281508606DB2002D9A
:1026600002D0012D06D00BE04FF440710C20FFF793
:102670003BFF06E04FF440710D20FFF735FF00E00F
:1026800063E062E0DFF8FC04006850F08070DFF87F
:10269000F41408606DB2002D02D0012D06D00BE0BD
:1026A0004FF440710A20FFF71FFF06E04FF440711E
:1026B0000B20FFF719FF00E047E046E0DFF8C40415
:1026C000006850F00070DFF8BC1408606DB2002D97
:1026D0000BD0022D15D00ED3042D1ED017D3062DEE
:1026E00027D020D3072D2AD02EE04FF4C0618520BB
:1026F000FFF7FAFE28E04FF4C0618620FFF7F4FEF2
:1027000022E04FF4C0618720FFF7EEFE1CE04FF49B
:10271000C0618820FFF7E8FE16E04FF4C061892011
:10272000FFF7E2FE10E04FF4C0618A20FFF7DCFE05
:102730000AE04FF4C0618B20FFF7D6FE04E04FF4AF
:10274000C0618C20FFF7D0FEFFE731BD2DE9F84FC7
:1027500004000D0016001F0064B2002C11D064B2FA
:10276000012C02D064B2022C02D16DB2022D08DB22
:1027700064B2032C05D040F28511DFF80C04FFF79A
:102780001EFE290049B2200040B2FFF709FFDFF822
:10279000FC0300684FF47A71484380465FEA1840B2
:1027A000B0FBF6F08146002082461FFA89F94846C0
:1027B00050FA0AF0012802DB1AF1010AF5E75FFA84
:1027C0008AFABAF1080F05DB4FF4D071DFF8B803CD
:1027D000FFF7F5FD404630FA0AF0B0FBF6F081460F
:1027E0001FFA89F9DFF8A80364B240F8249064B2B4
:1027F000002C05D0022C1BD00ED3032C24D02FE0AC
:102800001FFA89F919F1010000FB07F042F210717B
:10281000B0FBF1F0834623E01FFA89F919F10100BA
:1028200000FB07F042F21071B0FBF1F0834617E0B5
:102830001FFA89F919F1010000FB07F042F210714B
:10284000B0FBF1F083460BE01FFA89F919F10100A2
:1028500000FB07F042F21071B0FBF1F08346FFE796
:10286000DFF8300364B250F824006DB200EBC5000D
:10287000DFF8201364B251F824106DB201EBC501EA
:10288000C96831F00401C160DFF8080364B250F890
:1028900024006DB200EBC5002821C1605FFA8AFAFE
:1028A0001AF0070050F00800DFF8E81264B251F89F
:1028B000241008601FFA89F9DFF8D80264B250F8D2
:1028C0002400C0F808900020DFF8C81264B251F864
:1028D0002410C864DFF8BC0264B250F824006DB262
:1028E00000EBC5001FFA8BFBC0F810B00020DFF82A
:1028F000A41264B251F824104860BDE8F18F2DE9AC
:10290000F04104000D0016005FF0000864B2002CD6
:1029100011D064B2012C02D064B2022C02D16DB28B
:10292000022D08DB64B2032C05D04FF4F371DFF8FD
:102930005802FFF744FD64B2002C05D0022C19D0D8
:102940000DD3032C21D02BE042F21170864205D327
:102950004FF4F671DFF83002FFF731FD20E042F26C
:102960001170864205D34FF4F871DFF81C02FFF7AF
:1029700026FD15E042F21170864205D34FF4FA713C
:10298000DFF80402FFF71BFD0AE042F211708642F5
:1029900005D340F2F911DFF8F001FFF710FDFFE772
:1029A000DFF8EC0164B250F82400804664B2002CD9
:1029B00005D0022C17D00CD3032C1ED027E018F121
:1029C000010000FB06F042F21071B0FBF1F00700CD
:1029D0001DE018F1010000FB06F042F21071B0FB9F
:1029E000F1F0070013E018F1010000FB06F042F2DD
:1029F0001071B0FBF1F0070009E018F1010000FBD5
:102A000006F042F21071B0FBF1F00700FFE7DFF8CB
:102A1000840164B250F824006DB200EBC500076178
:102A2000BDE8F08110B5040064B2012C07D064B297
:102A3000022C04D040F2DB215348FFF7C0FC64B203
:102A40002000012802D0022811D021E04C48006863
:102A500050F000704A4908604FF4C0610820FFF749
:102A600043FD4FF4C0610920FFF73EFD15E04548E6
:102A7000006850F08070434908604FF4C0610A203C
:102A8000FFF732FD4FF4C0610B20FFF72DFD04E08E
:102A90004FF445713C48FFF792FC3E4864B250F851
:102AA0002400406D50F004003A4964B251F82410FB
:102AB0004865384864B250F82400D0F8800050F0DF
:102AC0000800344964B251F82410C1F88000002095
:102AD000304964B251F82410C8644FF6FF702D4994
:102AE00064B251F8241088602A4864B250F8240077
:102AF000D0F8800050F00100264964B251F824104B
:102B0000C1F88000234864B250F82400406D50F0B2
:102B10000100204964B251F82410486500201D4985
:102B200064B251F82410486010BD38B5040064B296
:102B3000012C07D064B2022C04D040F2313112488B
:102B4000FFF73DFC134864B250F8240040680500CC
:102B5000280000B232BD10B5040064B2012C07D0C9
:102B600064B2022C04D040F23F310748FFF727FC43
:102B70000020084964B251F82410486010BD0000DC
:102B80003C800440308004407C7F00007048FF1F80
:102B90000845FF1FA80FFF1F10B5040064B2042CE6
:102BA00007DA01220121174864B2005DFFF730FA0D
:102BB0000EE0042004002000441E40B2002807D08C
:102BC000012201210F4864B2005DFFF721FAF2E70C
:102BD00010BD10B5040064B2042C05DA094864B2D3
:102BE000005DFFF7A5FA0CE0042004002000441E5D
:102BF00040B2002805D0034864B2005DFFF798FAA0
:102C0000F4E710BDD410FF1F0EB400B582B003A9C5
:102C1000009102466B460121034878440A3000F0D7
:102C200089F906BC5DF810FB155700002DE9F84343
:102C300004000D0064B2002C08D0022C2CD018D354
:102C4000042C4FD03BD3052C5FD071E0DFF830026D
:102C5000006850F48060DFF8281208604FF440717B
:102C60006620FFF741FC4FF440716720FFF73CFC02
:102C70005EE0DFF80C02006850F40060DFF800123C
:102C800008604FF440714320FFF72EFC4FF4407171
:102C90004420FFF729FC4BE0DFF8E401006850F422
:102CA0008050DFF8DC1108604FF440716320FFF7BB
:102CB0001BFC4FF440716220FFF716FC38E0DFF890
:102CC000C001006850F40050DFF8B41108604FF400
:102CD00040715020FFF708FC4FF440715120FFF77E
:102CE00003FC25E0DFF89C01006850F48060DFF809
:102CF000941108604FF440714E20FFF7F5FB4FF43C
:102D000040714F20FFF7F0FB12E0DFF87801006818
:102D100050F40060DFF86C1108604FF440718920B6
:102D2000FFF7E2FB4FF440718820FFF7DDFBFFE780
:102D3000DFF8540164B250F82400C07810F0F300BA
:102D4000DFF8441164B251F82410C870DFF838017C
:102D500064B250F824008078DFF82C1164B251F886
:102D60002410887064B2002C02D064B2012C07D108
:102D7000DFF8180100684FF47A714843814606E095
:102D8000DFF80C0100684FF47A714843814628014E
:102D9000B9FBF0F00600B6B2B6F5005F02DB41F613
:102DA000FF700600B9FBF5F0B6B2B0EB06100700F5
:102DB000BFB2202F03DBDC213648FFF700FB32488F
:102DC00064B250F82400007810F0E0008046C6F3AA
:102DD000042050EA08002C4964B251F8241008700D
:102DE000294864B250F824004670274864B250F86D
:102DF0002400807A10F0E000804617F01F0050EAAF
:102E00000800214964B251F8241088721E4864B247
:102E100050F82400007C50F088001B4964B251F83F
:102E200024100874184864B250F82400C07850F098
:102E30000C00154964B251F82410C870BDE8F18344
:102E4000114A40B252F8202012791206F8D50E4AE3
:102E500040B252F82020D171704770B504000D00C7
:102E600016003000461E002809D095F90000010028
:102E700049B2200040B2FFF7E3FF6D1CF1E770BDDF
:102E800034800440288004403C10FF1F6848FF1F26
:102E90007048FF1F5480000010B5040064B2082C75
:102EA0000DDA00220021224864B2005DFFF7B0F87D
:102EB00003211F4864B2005DFFF73AFB14E00820CD
:102EC00004002000441E40B200280DD00022002142
:102ED000174864B2005DFFF79BF80321144864B201
:102EE000005DFFF725FBECE710BD10B504001048AE
:102EF00064B2005DFFF738F9002801D1002000E03E
:102F0000012010BD10B50400200040B2FFF7EDFF16
:102F100000280AD10A20FFF700FA200040B2FFF78C
:102F2000E4FF002801D1002000E0012010BD0000D6
:102F3000CC10FF1F2DE9F04FA1B0824600201646AD
:102F40001D4602910B900DF144086FF000490AE014
:102F500016F8011B0298D0470028029000F0AF82BB
:102F60000B98401C0B903078010001D10B98A8E21F
:102F70002528EDD100200590069007900890099033
:102F80000A9001E040F0010016F8011F2029F9D055
:102F900023290DD02B2904D02D2906D030290AD081
:102FA0000CE040F0020080B2EEE740F00400FAE7E7
:102FB00040F00800F7E740F01000F4E72A290ED1AE
:102FC0002968296051F8042B2960002A0D9204D544
:102FD000514240F004000D9180B2761C11E00021B6
:102FE0000D9109E00D99494505D001EB810302EBF4
:102FF000430130390D91761C3278A2F130010A2953
:10300000F0D331782E2903D04FF0FF310C911DE021
:1030100016F8011F2A2907D129682960761C51F862
:10302000042B29600C9211E000210C9109E00C990D
:10303000494505D001EB810302EB430130390C9186
:10304000761C3278A2F130010A29F0D3ADF83800AD
:103050000FF6D820317800F077FD08B116F8010B93
:103060008DF83A009DF83A00682802BF3178682947
:10307000622005D06C2804BF30786C2803D1712001
:103080008DF83A00761C11A8049016F8017BB7F170
:10309000250024D02038022840F2C380133800F0E5
:1030A000E8800B3800F05681401E00F02C81401E55
:1030B000022840F2B680001F00F02581401F00F07A
:1030C0008180401E00F0D580401E24D0C01E0BD051
:1030D000801E00F0CE80C01E00F0CB8044E1252091
:1030E0008DF84400012049E12868286050F8044B1D
:1030F000286003940C9F002F04D5204600F030FD7B
:10310000074606E03A460021204600F045FD00B1A2
:10311000071B069733E129682960002251F8040B48
:1031200029600021CDE9000111A80390DDE900012B
:103130009142049F08BF90424FF03C0C01D10C9A81
:10314000C2B100F00F033033DBB23A2BA8BF2733F4
:10315000ACF101020009BB54944640EA0170090930
:103160000022914208BF904204D0039A07EB0C035F
:103170009A42E6D307EB0C000390CCF13C010C988B
:103180000691814209DA401A08904FF6EF71BDF8B6
:1031900038000840ADF83800F1E0002840F1EF8039
:1031A0009DF8380000F01400102840F0E8800D98D9
:1031B000059A801A089A801A401A0128C0F2DF8006
:1031C0000890DCE09DF83A0062281AD0682806D002
:1031D0006A280CD06C281CD0712808D019E0286807
:1031E000286050F8041B28600B980880C7E0286806
:1031F000286050F8042B28600B98C117C2E9000121
:10320000BDE02868286050F8041B28600B980870FF
:10321000B5E02868286050F8041B28600B98086007
:10322000ADE02868C01D20F007022A60D2E9000145
:1032300008322A60CDE90001002902D505982D2128
:103240000AE0BDF83800810702D505982B2103E07C
:10325000C00705D50598202108F80010401C0590EE
:1032600011A80599084403903946684600F0E8F92A
:1032700085E09DF83A006C280DD0712818BF6A28A7
:1032800009D12868C01D20F007022A60D2E9000198
:1032900008322A6005E02968296051F8040B29608A
:1032A0000021CDE900019DF83A00682803D1DDE94D
:1032B000000180B20BE0622803D1DDE90001C0B259
:1032C00005E0742818BF7A2804D1DDE90001002147
:1032D000CDE900019DF83800000732D5DDE9002373
:1032E0000020834208BF82422BD047F0200078287C
:1032F00027D10598302108F80010401C411C059189
:1033000008F800701DE09DF83A00294600F0DCF84E
:10331000CDE90001DDE9002300218B4202DA0598A6
:103320002D210AE0BDF83800810702D505982B2130
:1033300003E0C00705D50598202108F80010401CBF
:10334000059011A80599084403903946684600F095
:10335000F2F814E0012005902868286050F8041B5A
:1033600028608DF844100AE025208DF844000120E3
:103370000590380003D088F80170022005900D9860
:103380000599401A0899401A0699401A0999401A55
:103390000799401A0A99471A9DF83800400710D437
:1033A0002020012F8DF840000BDB3C46012310AAA2
:1033B0006946504600F0A2FB002840F08080641E61
:1033C000F4D1DDF814B0BBF1000F11AC0CD014F83F
:1033D000011B0298D0470028029070D00B98401C27
:1033E000BBF1010B0B90F2D130208DF84000089C0E
:1033F000012C09DB012310AA6946504600F07EFB30
:1034000000285CD1641EF5D1DDF818B0039CBBF137
:10341000000F0CD014F8011B0298D047002802902E
:103420004DD00B98401CBBF1010B0B90F2D130201A
:103430008DF84000099C012C09DB012310AA694684
:10344000504600F05BFB002839D1641EF5D103988B
:103450000699DDF81CB04418BBF1000F0BD014F82E
:10346000011B0298D047029048B30B98401CBBF157
:10347000010B0B90F3D130208DF840000A9C012CF9
:1034800008DB012310AA6946504600F037FBB0B9AB
:10349000641EF6D19DF8380040077FF564AD20200A
:1034A000012F8DF84000FFF65EAD012310AA69469A
:1034B000504600F023FB10B97F1EF6D153E54FF0C4
:1034C000FF3021B0BDE8F08F622826D068281DD0DB
:1034D0006A2808D06C2827D0712804D0742823D0FB
:1034E0007A280CD020E00868C01D20F00700086092
:1034F000D0E90023083008601946104670470A6872
:103500000A6052F8040B0A60002170470A680A60DA
:1035100052F8040B0A6000B20BE00A680A6052F825
:10352000040B0A6040B204E00A680A6052F8040B17
:103530000A60C11770472DE9F343054608462F6915
:103540006F2808BF082405D041F02001782914BF56
:103550000A2410243C26D5E90023642818BF6928D2
:103560009046994606D100218B4203DAD8F1000833
:1035700069EB49090020814508BF80450CD1286BC3
:1035800050B9082C38D195F83800000734D53020D0
:103590003B2687F83B002FE0701E00900646404611
:1035A00049462246E31700F023FB02F13000C0B287
:1035B0003A2803DB9DF8041051390818B8554946DC
:1035C00040462246E31700F013FB80468946002060
:1035D000814508BF804503D0E868B9198842DBD32C
:1035E000082C09D195F83800000705D5B85D3028BA
:1035F00002D0761E3020B855B919E960C6F13C00FA
:10360000296BA861884208DA081A28624FF6EF7120
:10361000288F08402887BDE8F38300290ED595F848
:10362000381001F01401102908D1696B6A69891AF0
:103630002A6A891A0E1A012EA8BF2E62BDE8F383EA
:103640002DE9F34F8BB0D0E90089006B002801AF62
:1036500048BF062005D404BF41F02000672802D1EE
:1036600001200B99086340F2FF720B984168C1F387
:103670000A50904220D1080302BF0B98006800282E
:103680000AD10B99032088619DF8300061381A280F
:1036900058D30FF2AC4109E00B99032088619DF8E3
:1036A000300061381A284AD30FF28C410B98C06859
:1036B000032200F015FBFFE0012807DA0B9800F069
:1036C0004AFB012802DB00230026ECE00B9ADFF81E
:1036D00054B1526840F2FE3161F31E520B994A60B8
:1036E00040F2FE31401A00B247F2975148434E492A
:1036F00090FBF1F6404649460022002300F04EFBC5
:1037000036B238BF89F00049C6F10707012F92464B
:103710001BDBF80707D552465B464046494600F09A
:1037200055FB804689465046594652465B467F10B7
:1037300000F04CFB002F82468B46EAD126E00FF2C8
:10374000F431B3E70FF2F431B0E77F420024374D94
:1037500012E0F80707D552465B462046294600F09E
:1037600035FB04460D465046594652465B4600F02E
:103770002DFB7F1082468B46002FEAD140464946FA
:1037800022462B4600F0F4FB804689469DF8300027
:103790000B99DFF89CB0096B40F02005662D0CBF3B
:1037A00006F10A0006204718142FA8BF132730205F
:1037B0008DF804000DF10504012F3BDB404649461E
:1037C00000F018FD014604F1080204234FF00A0C32
:1037D000B1FBFCFC0CEB8C04A1EB4401303102F892
:1037E000011C0A21BCFBF1FE0EEB8E04ACEB440481
:1037F00030345B1E714602F8024DE7D1083F012FBD
:1038000002F10804D8DB00F015FD02460B464046E5
:10381000494600F01DFD00225B4600F0D7FA8046C5
:103820008946CBE700002440A08601000000F03F5D
:1038300084D797410DF10500201A0DF1050702E02C
:10384000401E761E7F1C39783029F9D0662D08BFBE
:10385000711C03D0652D0CBF012100210B9A126B46
:103860008B181BB29842B8BF03461BB219001AD47A
:10387000814204DA785C3528A8BF392000DA30208C
:103880007A18521E00E05B1E12F80149491E84425C
:10389000F9D0392802D1785C401C7854002902D52F
:1038A0007F1E5B1C761C36B29DF830100B9800967C
:1038B0001BB23A4600F003F80DB0BDE8F08F2DE9D9
:1038C000F04786B006468A4690461D4600F09DFDAC
:1038D000012D406A376B90F8009002DA01250FF253
:1038E00064284AF02000BDF93840662808BF641CEF
:1038F00013D0672840F08A8014F1040F75DBBC42B6
:1039000073DA96F83800641C000702D4BD42B8BFD1
:103910002F4624B23F1B48BF002724B2F068B1698C
:10392000012C23DA4A1C30234354012F03DA96F882
:103930003800000703D5F06800F80290521CE742F7
:10394000B8BF7C4224B260427062E719AF42B261F4
:10395000B8BF3D46F068B3692DB2F5612A464146CD
:10396000184400F0BDF9781BB062B0E022469542E1
:10397000084416DA2A46414600F0B2F9B1696918DE
:10398000601B012FB161706203DA96F838000007FE
:1039900005D5F06800F80190F069401CF061B7624D
:1039A00095E0414600F09CF9B06920182D1B012FCD
:1039B00003DA96F83810090703D5F16801F800908A
:1039C000401CB0612DB2AF42B8BF3D46F068B3694C
:1039D0002DB22A4608EB0401184400F081F9B069C1
:1039E0002818B061781B706271E0BD4204DA96F865
:1039F0003810090758BF2F467F1E48BF0027BAF16D
:103A0000670F0CBF4FF0650A4FF0450AB169F368C4
:103A1000481CB061012F18F8012B5A5403DA96F8AC
:103A20003810090717D5F168431CB36101F80090FD
:103A3000012F10DB6D1E2DB2AF42B8BF3D46F068BE
:103A40002DB22A464146184400F04AF9B0692818B8
:103A5000B061781B7062F068B1690144200081F8A0
:103A600000A004D42B20487001F1020804E02D22AC
:103A70004A7001F102086442002502AF08E00A2200
:103A8000684600F0DBFC019807F8010B6D1C009CF8
:103A900021B20129F3DA022D06DA4AF02000652866
:103AA00004BF302008F8010B4DB9302008F8010B95
:103AB00007E06D1E02A8405D303008F8010B012DB3
:103AC000F7DAF068B1690844A8EB0000F06196F8F5
:103AD000380000F0140010280DD17069B169081881
:103AE000716A0818F1690818B16A0818716B884280
:103AF000BCBF081A306206B0BDE8F087F8B50446CE
:103B00000D4616461F46002077B116F8011BA8681F
:103B1000A047A86030B1E86A401CE86200207F1E20
:103B2000F3D1F2BD4FF0FF30F2BD0000686A6C7453
:103B30007A4C00006E616E004E414E00696E660068
:103B4000494E4600300003FC0278C9B28A421AB1DD
:103B50001CBF10F8012FF9E718BF00207047FC03C5
:103B600000F10103810704D010F8011B89B181071E
:103B7000FAD10268B2F10131914311F0803F04BFE4
:103B800050F8042FF6E710F8011B11B110F8011BD3
:103B9000FBE7C01A70470000C9B2830706D0521E67
:103BA00022D310F8013B9942F7D11FE0083A13D312
:103BB00002F1040241EA012141EA014150F8043BCB
:103BC000121F21BF4B40A3F1013C2CEA030C1CF057
:103BD000803FF3D0C9B2001F083210F8013B521EDB
:103BE00028BF91EA030FF8D818BF0120401E704784
:103BF0001B4213D1094236D12AB18446B0FBF2F000
:103C000002FB10C2704700F021BCFCD3002200234D
:103C100070470B000200002100207047904271EBBA
:103C2000030CF6D370B5B1FA81F4B3FA83F52C1B0B
:103C3000A340C4F1200532FA05F63343A2405FF0F9
:103C40000046E64002E05B085FEA3202841A71EB4C
:103C5000030524BF204629467641F4D302000B0019
:103C60003000002170BD012ACFD970B5140C20D0CE
:103C7000B1FA81F4B2FA82F5C4F120046419B4F106
:103C80002006D6D3B2405FF00044F440002502E0A5
:103C900052085FEA3303C61A71EB020E24BF3046A6
:103CA000714664416D41F3D302000B0020002900EE
:103CB00070BD0C46B1FBF2F102FB11452D0445EA43
:103CC0001045B5FBF2F402FB145580B240EA0545FD
:103CD000B5FBF2F002FB105240EA044070BD000058
:103CE00062B38B0708D0521E11F8013B00F8013B6C
:103CF00000F024808B07F6D1830740F0208000BFBE
:103D0000103A07D330B4B1E83810103AA0E83810B0
:103D1000F9D230BC530724BFB1E80810A0E808105E
:103D200044BF51F8043B40F8043BD20724BF31F8AC
:103D3000022B20F8022B44BF0B7803707047083A1F
:103D400007D3B1E80810083A40F8043B40F804CB28
:103D5000F7D25307E4E730B4436803F0004201218F
:103D6000C3F313034360002B04BF0368002B08D187
:103D70000DE00368DD0F45EA440444605B00036026
:103D8000491E4468E302F4D5C4F313034360436857
:103D90001A434260084630BC704700004FF4001CD4
:103DA0001CEB410F94BF1CEB430F09E041EA030CED
:103DB00050EA4C0C52EA0C0C03D2994208BF9042D4
:103DC000704714BF8B42824270470000B0B581EA51
:103DD000030C0CF0004C40F2FF7515EA11541DBFA6
:103DE00015EA1357AC42AF4239E0E41923EA4553D0
:103DF00043F48013C90241F0004141EA505EC7021A
:103E00001100A7FB020200284FF00000EEFB01208A
:103E10004FF00001E3FB072118BF42F001024018F8
:103E200000214941E3FB0E01A4F580640F0302D297
:103E300052004041494154F101046CDD470872F1E0
:103E4000004250F1000051EB0451A1F580115CBF1C
:103E500041EA0C01B0BD4CEA05510020B0BD05EAB5
:103E60001357AC4214BFAF4241E050EA410E1CBFB1
:103E700052EA430E02E061460020B0BD24423C44B9
:103E80001BD15FEA070EF6D0090302BF01460020EE
:103E9000AEF1140EB1FA81F7AEEB070401FA07FE9A
:103EA0000C37C7F1200100FA07F7C8404EEA000EB0
:103EB00023EA455343F48013A2E733F00043B3FAF7
:103EC00083F704BFB2FA82FE77440B3FE41BB7F1DD
:103ED000200E2FBF02FA0EF3BB40C7F1200E22FACC
:103EE0000EFE38BF43EA0E03BA40641C82E750EA74
:103EF000410E14BF52EA430E6FF000014FF4001759
:103F000017EB430F8ABF194617EB410FB5E74CEA91
:103F100005510020B0BDD4F10104B4F120070FDA3F
:103F2000C4F12007520828BF42F0010210FA07F539
:103F300001FA07F7E1BF2A43E0403843E1400FE0D0
:103F4000352C98DCC7F1200452EA400220FA07F22F
:103F500018BF42F0010231FA07F0A1400A430021E4
:103F600072F1004250F1000051EB0C01B0BD0000B5
:103F70002DE9F04140F2FF7581EA030C0CF0004C92
:103F800015EA11541DBF15EA1357AC42AF42E9E0E0
:103F9000BC41C1F31301C3F31303801A994143F4E5
:103FA000801304D2641E4000494180185941C9025F
:103FB00041EA5051B1FBF3F603FB1611A2FB067563
:103FC000D7EBC020A94102D2761E80185941C90200
:103FD00041EA5051B1FBF3FE03FB1E11A2FB0E752B
:103FE000D7EBC020A94103D2AEF1010E8018594190
:103FF000890241EA9051760546EA8E2EB1FBF3F62E
:1040000003FB1611A2FB0675D7EB8020A94102D253
:10401000761E80185941C90241EA50514EEA060EF7
:10402000B1FBF3F603FB1611A2FB0675D7EBC0201C
:10403000A94102D2761E80185941C90241EA505165
:10404000B1FBF3F703FB1711A2FB0735D3EBC0203D
:10405000A94167F100070CBF004247F0010766F372
:10406000D5274FEA1E31B80814F5806414DDBD076A
:1040700075F1004250EB0E5051EB045111F5801FC9
:104080005CBF41EA0C01BDE8F0814CF07F6141F07A
:10409000E0410020BDE8F081BD076D0840EA0E5008
:1040A00041F48011D4F10104B4F120060ADAC4F11C
:1040B00020060200E04001FA06F3E1401843B24056
:1040C00015430EE0342C14DCC6F1200445EA40050B
:1040D0006D0820FA06F2154321FA06F0A1400D43BF
:1040E000002175F1004250F1000051EB0C01BDE8D8
:1040F000F08100205FEA0C01BDE8F081CFB9921891
:104100005B41B3FA83F704BFB2FA82F6BF190B3FE3
:10411000B7F120062FBF02FA06F3BB40C7F1200615
:1041200022FA06F638BF3343BA401CB1E419641EC4
:104130002FE77F4231F00041B1FA81F404BFB0FAB9
:1041400080F6A4190B3CB4F120062FBF00FA06F14B
:10415000A140C4F1200620FA06F638BF3143A04042
:104160003C1B16E7AC421ABF05EA1357AF4214E0F6
:1041700050EA41061CBF52EA4306BFE750EA410736
:10418000304661461CBF41EA0551BDE8F08152EA64
:10419000430C08BFC143BDE8F08100204FF4001676
:1041A00016EB410F98BF16EB430F08BF16EB410FFC
:1041B00024BFC14305E016EB430F0CBF61464CEA38
:1041C0000551BDE8F0810000F446400D40EAC120F1
:1041D000490006D200F014F8004248BF6FF00040DA
:1041E000604700F00DF84FF0004188428CBF084650
:1041F00040426047400D40EAC120490080F00D80F8
:1042000040F00040490DA1F58061491C05D4D1F171
:104210001F0154BFC840C01770474FF000007047DF
:10422000010040F10980F446404200F005F851F0E9
:1042300000416047010000BF09D0B0FA80F188401A
:10424000C91CC1F58461090501EBD0214005704707
:10425000F0B44FF0004591EA030F44BF6B4000F00B
:1042600001B900BF841A71EB030604D26E40001B33
:10427000B141121973414FF4001C1CEB410F34BFC4
:104280007CEB430684E00C0DA4EB1356362E7DDC4C
:10429000012E43DC45EAC32343EA525312BFD20244
:1042A00092025B08240545EAC12141EA5051D2EB54
:1042B000C020994125D407D1B0FA80F610FA06F152
:1042C00064D00020203608E0B1FA81F6B140C6F192
:1042D000200220FA02F21143B0404FEAF474B4EB2A
:1042E000465434F001064FEA74040AD8D6F5001695
:1042F000760D04F00044F04061FA06F25040F140BF
:104300004840C00A40EA415021F0004128BF5FEA1E
:10431000500550F1000044EBD12137E045EAC323BA
:10432000DB0A45EAC121C90AB6F120050EDD42EAE1
:104330000242120CC5F1200603FA06F6EB4042EAEF
:1043400006056D42984161F100010DE062FA06F543
:10435000F240554063FA06FC82EA0C02F3405A40F0
:104360006D42904161EB030111F4801F05D1641E81
:10437000620502D06D004041494121F4801143089B
:1043800075F1004350F1000041EB0451F0BC70475F
:104390001CEB410F15D223F0004352EA43060BD029
:1043A0004FEA4C0CBCEB410F04D80C0D661E342EAA
:1043B000B7DDEBE7801A994150EA410608BF0021BA
:1043C000E4E708BF1CEB430F28BF6FF00001DDE7F7
:1043D00080B5134800F0B0F80FF24C020FF2440120
:1043E0000160426241600FF24402826381600FF219
:1043F0004402C1600161416181618162C162016306
:104400004163C2630164416401BD10B5044800F01A
:1044100093F80446206808B9FFF7DAFF204610BD7C
:10442000D848FF1F000000002E00000066616C737A
:1044300065000000747275650000000091FBF2F3E6
:1044400003FB1211C0E90031704700007047000003
:10445000F0B44FF0004591EA030C44BF6B40FFF706
:1044600001BF00BF841A71EB030603D2001BB141E8
:10447000121973414FF4001C1CEB410F34BF7CEB4D
:10448000430443E00C0DA4EB1356352E50DC45EAF3
:10449000C323DB0A45EAC121C912B6F120050DDDAF
:1044A00063FA05F6EB4086EA0305124218BF45F0B1
:1044B0000105C01851F100010CD213E062FA06F5B3
:1044C000F2405540F3415A40B340F3405A408018FF
:1044D000594107D349085FEA30005FEA350528BF34
:1044E00045F0010501F58011420875F1004250F1D7
:1044F000000041EB0451F0BC4FF4001C1CEB410FD9
:1045000038BF70470020090D090570471CEB410FAB
:1045100010D252EA43060BD0BCEB410F05D80C0D6C
:10452000AB43661E342EB5DD02E0AB438018594123
:10453000F0BC7047F0BC7047704700000000803F3F
:1045400000000000000000000000803F6F12833A6E
:104550000AD7A33B0000003F0000803F0AD7A33BDF
:104560009A990F429A99193F00E0ABC50040B5C532
:104570000060B8C50080BBC500E0C4C50020CBC545
:104580000020E4C50000FAC500C0A8C500C0A8C549
:1045900000E0ABC50000AFC50040B5C50040B5C5E3
:1045A00000E0C4C500E0C4C500A08CC500C08FC534
:1045B00000E092C5000096C5000096C5002099C590
:1045C00000C0A8C50040B5C5004067C5004067C52C
:1045D00000806DC500007AC5004083C5006086C5B7
:1045E000002080C5004083C50000E1C40000E1C494
:1045F0000000E1C40000E1C40080EDC40080EDC40F
:104600000000FAC40000FAC400000000000000002E
:10461000000000000000000000000000000000009A
:1046200000000000000000000000E1440000E14440
:104630000000E1440000E1440080ED440080ED44CE
:104640000000FA440000FA44004067450040674516
:1046500000806D4500007A45004083450060864536
:10466000002080450040834500A08C4500C08F4558
:1046700000E09245000096450000964500209945CF
:1046800000C0A8450040B54500C0A84500C0A845E9
:1046900000E0AB450000AF450040B5450040B545E2
:1046A00000E0C44500E0C44500E0AB450040B5452E
:1046B0000060B8450080BB4500E0C4450020CB4504
:1046C0000020E4450000FA45000000C20000C0C11F
:1046D000000090C1000040C10000C0C00000000008
:1046E0000000C04000004041000090410000C04177
:1046F00000000042000000000000FA4300007A447D
:104700000080BB440000FA4400401C4500803B454B
:1047100000C05A4501000000010000001C0000001C
:104720000C0000001D000000270000002B0000000E
:104730002F00000009000000190000002300000005
:10474000290000002D0000000600000015000000F8
:104750001E000000230000002600000006000000EC
:10476000120000001C0000002200000025000000D4
:1047700005000000110000001A0000001E000000EB
:1047800021000000050000001000000018000000DB
:104790001B0000001D00000038FFFFFF9CFFFFFF13
:1047A0000000000064000000C80000002C010000B0
:1047B0000000A0400000A0400000A0400000000059
:1047C00000000000000000000000000000000000E9
:1047D00000000000000000000000000000000000D9
:1047E0000000000000000000000000000000A040E9
:1047F0000000A0400000A0400000803F000000003A
:1048000000000000000000000000000000000000A8
:104810000000000000000000000000000000000098
:1048200000000000000000000000A0400000A040C8
:104830000000A0400000A040000000400000000078
:104840000000000000000000000000000000000068
:104850000000000000000000000000000000000058
:10486000000000000000A0400000A0400000A040A8
:104870000000A0400000A0400000804000000000B8
:104880000000000000000000000000000000000028
:104890000000000000000000000000000000000018
:1048A0000000E04000000041000020410000C04046
:1048B0000000A04000008040000080400000004058
:1048C00000000040000000000000000000000000A8
:1048D0000000000000000000000000000000404157
:1048E00000004041000020410000204100007041D4
:1048F0000000704100007041000080400000004056
:104900000000803F000000000000000000000000E8
:104910000000000000000000000040410000404195
:104920000000404100004041000040410000704153
:1049300000007041000080400000804000004040C6
:10494000000000400000803F000000000000000068
:1049500000000000000040410000A841000040416C
:1049600000004041000040410000704100007041E3
:104970000000804000008040000080400000804037
:10498000000000400000803F000000000000000028
:1049900000000000F4010000E8030000DC05000056
:1049A000D0070000C4090000B80B0000AC0D0000E7
:1049B00067424345A0A0000034353637A0A0000070
:1049C000C800000000B0034000B00B400000000031
:1049D00000000000000000000000000000000000D7
:1049E000000000000000000000004E6F6E4D61737B
:1049F0006B61626C6500000000486172644661751D
:104A00006C740000000000004D656D4D616E6167C3
:104A1000656D656E7400004275734661756C740057
:104A200000000000000055736167654661756C7495
:104A30000000000000000000000000000000000076
:104A40000000000000000000000000000000000066
:104A50000000000000000000000000000000000056
:104A60000000000000000000000000000000000046
:104A700000535643616C6C00000000000000000011
:104A800044656275674D6F6E69746F720000000057
:104A90000000000000000000000000000000506561
:104AA0006E6453560000000000000000005379734C
:104AB0005469636B0000000000000000444D413069
:104AC0000000000000000000000000444D413100E3
:104AD00000000000000000000000444D41320000D2
:104AE000000000000000000000444D4133000000C1
:104AF0000000000000000000444D413400000000B0
:104B000000000000000000444D413500000000009E
:104B1000000000000000444D41360000000000008D
:104B20000000000000444D4137000000000000007C
:104B300000000000444D413800000000000000006B
:104B4000000000444D41390000000000000000005A
:104B50000000444D41313000000000000000000022
:104B600000444D4131310000000000000000000011
:104B7000444D4131320000000000000000000044BC
:104B80004D41313300000000000000000000444DA2
:104B900041313400000000000000000000444D419D
:104BA000313500000000000000000000444D415F6E
:104BB0004572726F720000000000004D434D00000E
:104BC000000000000000000000004654464C0000B9
:104BD000000000000000000000526561645F436F48
:104BE0006C6C6973696F6E004C56445F4C5657008D
:104BF000000000000000004C4C57000000000000C6
:104C00000000000000005761746368646F67000073
:104C10000000000000524E470000000000000000AD
:104C20000000000049324330000000000000000096
:104C30000000004932433100000000000000000085
:104C40000000535049300000000000000000000048
:104C50000053504931000000000000000000000037
:104C600053504932000000000000000000000043E3
:104C7000414E305F4F525F4D425F62756600434167
:104C80004E305F4275735F4F666600000043414ED1
:104C9000305F4572726F72000000000043414E3079
:104CA0005F54785F5761726E696E6743414E305F43
:104CB00052785F5761726E696E6743414E305F573D
:104CC000616B655F557000000052657365727665B3
:104CD00064353100000000005265736572766564CA
:104CE0003532000000000043414E315F4F525F4DAE
:104CF000425F6275660043414E315F4275735F4F9C
:104D0000666600000043414E315F4572726F72006B
:104D10000000000043414E315F54785F5761726E6E
:104D2000696E6743414E315F52785F5761726E69B9
:104D30006E6743414E315F57616B655F5570000090
:104D400000526573657276656435390000000000B5
:104D50005265736572766564363000000000005558
:104D6000415254305F52585F545800000000554182
:104D70005254305F4552520000000000005541522D
:104D800054315F52585F545800000000554152544E
:104D9000315F45525200000000000055415254322C
:104DA0005F52585F54580000000055415254325F22
:104DB00045525200000000000055415254335F52EA
:104DC000585F54580000000055415254335F45521B
:104DD0005200000000000055415254345F52585FA9
:104DE00054580000000055415254345F455252005F
:104DF000000000000055415254355F52585F54582E
:104E00000000000055415254355F455252000000E9
:104E1000000000414443300000000000000000009A
:104E20000000414443310000000000000000000089
:104E300000434D5030000000000000000000000062
:104E4000434D50310000000000000000000000430E
:104E50004D503200000000000000000000004654E9
:104E60004D30000000000000000000000046544DDE
:104E700031000000000000000000000046544D32E8
:104E80000000000000000000000000434D5400003E
:104E90000000000000000000000052544300000029
:104EA0000000000000000000005265736572766526
:104EB0006438330000000000504954300000000006
:104EC00000000000000000504954310000000000C4
:104ED00000000000000050495432000000000000B3
:104EE00000000000005049543300000000000000A2
:104EF00000000000504442300000000000000000AC
:104F00000000005553423000000000000000000087
:104F100000005553424443440000000000000000DC
:104F200000454E45545F313538385F54696D6572C0
:104F3000454E45545F5472616E736D69740000454F
:104F40004E45545F52656365697665000000454EC5
:104F500045545F4572726F72000000000049325381
:104F600030000000000000000000000053444843EF
:104F70000000000000000000000000444143300039
:104F80000000000000000000000044414331000028
:104F900000000000000000000054534930000000F1
:104FA00000000000000000004D434700000000002A
:104FB000000000000000004C5054696D6572000054
:104FC0000000000000005265736572766564313040
:104FD0003200000000504F52544100000000000019
:104FE00000000000504F525442000000000000003A
:104FF000000000504F525443000000000000000029
:105000000000504F52544400000000000000000017
:1050100000504F5254450000000000000000000006
:105020005265736572766564313038000000005255
:105030006573657276656431303900000000526531
:10504000736572766564313130000000005265731B
:105050006572766564313131000000005265736518
:1050600072766564313132000000005265736572FA
:1050700076656431313300000000526573657276E5
:1050800065643131340000000052657365727665E5
:1050900064313135000000005265736572766564D5
:1050A00031313600000000526573657276656431F7
:1050B00031370000000052657365727665643131E6
:1050C00038000000005265736572766564313139CD
:1050D00000000000008003400090034000800B406F
:1050E00000900B4000F00F4040F00F4080F00F4068
:1050F000C0F00F4000F10F4066000A1D32000701AA
:10510000640007106E000406780004088200040A98
:105110008C00040C9600040EA0000410AA000412D7
:10512000B4000414BE000416C8000418D200041A07
:10513000DC00041CE100041DE600041EEB00041F5B
:10514000F4000317FA000318130101062C010214DE
:10515000000109080090044000A0044000B0044091
:1051600000C0044000D0044000A0064000B006404B
:1051700000C0064000D0064000A00E4000B00E4027
:10518000A00300008C030000000048430000C84258
:105190000000704200002042000000000000A0C19A
:1051A000000070C2000034C3000091C3000048C476
:1051B0000000C8C3000048C30000C8C200000000CF
:1051C0000000C842000048430000C84300004844B3
:1051D000B81E053E96000000960000000000164331
:1051E000000016430100000000401C4500C0284597
:1051F000004035455E0100006A6E6B6C676D4E4F76
:10520000343536370D81110009030CD01240173F99
:10521000185019031A783200A00A63E0ACFF650C3D
:105220006600670029142C1E2A007E0C7F16802A37
:10523000814E8261836F847B8586868E879788A462
:1052400089AF8AC58BD78CE88D204A00491347085F
:105250004B144C17460522992303A6049B009C453A
:10526000AB069E119F020000020401018848FF1F47
:10527000D848FF1F8848FF1F8848FF1F8848FF1F26
:105280007911FF1F6011FF1F0000000000000000E7
:10529000000000000000000000000000000000000E
:1052A0000000000000000000013100002DE9F04185
:1052B00004001420DFF8CC140968DFF8C824126851
:1052C00092FBF0F200FB1210002804D100F0AAFAC1
:1052D000DFF8B4140860DFF8B4040068002800F0B8
:1052E000A3811420DFF89C140968DFF89824126861
:1052F00092FBF0F200FB1210002840F09581DFF8DD
:1053000090040068DFF88C140860DFF87C04006803
:10531000201AFCF741FB05000026DFF87C0400683A
:105320002900FCF7E1FB04D8DFF8700400680600F0
:105330004EE02800DFF86014096AFCF7D5FB04D8BA
:10534000DFF85804006A060042E00027082F3FDA21
:105350002800DFF8441451F82710FCF7C5FB35D8B6
:10536000DFF8340400EB870040682900FCF7BCFB41
:105370002CD8DFF8280400EB87004068DFF81C1405
:1053800051F82710FCF7C2FB80462800DFF808140C
:1053900051F82710FCF7BAFB4146FCF72BFC80467E
:1053A000DFF8F40300EB87004068DFF8EC1351F8F6
:1053B0002710FCF7ABFB01004046FCF705FBDFF8CC
:1053C000DC1351F82710FCF781FC06007F1CBDE7B9
:1053D000280000F039FA31F000410022DFF8C03334
:1053E000FEF7DCFC0FD2DFF8BC0300682900FCF7F5
:1053F00001FC0100DFF8B0030068FCF787FBDFF871
:10540000A81308602CE02800DFF8A013FCF76CFB61
:1054100010D8DFF890030168DFF89003FCF7EAFB8F
:105420000100DFF884030068FCF770FBDFF87813F5
:10543000086015E02800DFF87813FCF743FB0FD273
:10544000DFF860030168DFF86C03FCF7D3FB0100B1
:10545000DFF854030068FCF759FBDFF84C130860D1
:105460002800FCF775FCDFF85013DFF850231268B2
:1054700041F82200DFF844030068401CDFF83C13C9
:105480000860DFF838030068C82803DB0020DFF875
:105490002C130860DFF828030168DFF82803FCF705
:1054A00015FCC1490968FCF70DFB07D2C448016827
:1054B000C448FCF70BFCBC49086011E0C048016817
:1054C000C148FCF703FC0100B7480068FCF7FAFA92
:1054D00006D2BB480168BC48FCF7F8FBB24908603B
:1054E000032094FBF0F0A8490968B1EB400F0FDAF4
:1054F000AD48006800F0A8F9B44AB54BFEF766FC69
:105500000022B44BFEF7A4FF00F0C6F9A6490860DC
:1055100000279D480068201AB0F5167F23DA9A48C4
:105520000068FCF739FAAC490968FCF7EFFAAB49B7
:10553000FCF7DAFA17D894480068FCF72DFAA64968
:105540000968FCF7E3FAA649FCF7C0FB00F07CF918
:10555000A44AA54BFEF73AFCFEF736FE0700332FB0
:1055600001DB32200700904800683100FCF7AEFBF9
:1055700080463800FCF710FA4146FCF7A7FBFCF721
:10558000E7FB834908608248006882490968401A3D
:10559000AB2805DB7F480068AA307D4908600CE035
:1055A0007B4800687B490968401A10F16E0F04DAE5
:1055B000784800686E387649086075480068FCF7DE
:1055C000EBF9010088467E4801688848FCF77EFBBD
:1055D0004146FCF777FA09D2794801688348FCF71D
:1055E00075FBFCF7B5FB6A49086017E07448016871
:1055F0007F48FCF76BFB0100884665480068FCF7B4
:10560000CBF94146FCF75EFA08D26D48016878484C
:10561000FCF75CFBFCF79CFB5D4908605A4800689E
:10562000FCF7BAF96C4908600421200080B200F050
:105630008BF905215448006880B200F085F90020FC
:105640001421544A1268524B1B68524D2D685B1B43
:105650004C4D2D684B4E366896FBF1F601FB16510A
:1056600001FB03F1142391FBF3F189180800BDE855
:10567000F08138B55F480068002839D05E4800687E
:10568000002835D05D480068401E5C4908605B48D2
:105690000068012802DA002057490860FCF729FC5D
:1056A0003948006840F6C511884209DB3648006871
:1056B0000321484300F6C410042190FBF1F060E0A0
:1056C00031480068C83040F6C511884202DB40F618
:1056D000C41056E02C48006840F6FC012A4A1268C3
:1056E000891A032291FBF2F110EB4100C83048E027
:1056F0004FF416704149086041484249096800EB7F
:10570000810050F8044C40480068002806D03F480B
:105710000068002802D042F2107032E03B48006876
:10572000002801D100202CE017480068C830FCF7A1
:1057300033F901002000FCF7C5F903D22000FCF783
:1057400007FB1EE010480068FCF726F905000E482C
:105750000068FCF721F901002000FCF7D7F9154992
:10576000FCF7B4FA2A49FCF72FF95FF08041FCF707
:1057700041FA2900FCF7AAFA0C49FCF7A7FAFCF752
:10578000E7FA32BD4C48FF1F2045FF1F5848FF1F56
:10579000A810FF1FAC10FF1F8010FF1F5C10FF1F21
:1057A00000007940A410FF1FB410FF1F0000484301
:1057B000FFFF47C3000048C32845FF1F4848FF1F9D
:1057C000B010FF1F0000C842000034C39A99999995
:1057D0009999C93F00005E402445FF1F0100A04287
:1057E0000000A0C27B14AE47E17A843F000066430C
:1057F0000000AAC3EC05FF1F482FFF1FC810FF1FA2
:10580000BC10FF1FB810FF1F5C48FF1F5448FF1F4C
:105810000000404080B50120FDF704F90220FDF7AB
:1058200001F901BD38B50120FDF77FF90400012021
:10583000FDF791F90220FDF778F905000220FDF748
:105840008AF96D42281932BD5FF0FF0C1CEAD05175
:1058500014BF614506E0C110400721F0E04101F1AD
:105860006051704779B900F0004100020AD0B0FAE7
:1058700080FC00FA0CF001F16051A1EB0C5101EB3E
:10588000D0214005704741020CBF40F4E0016FF0A9
:1058900000010020704700004FEAF17CBCF1E04CB1
:1058A0002CBFBCF5001F11E05FEA4C0C34BFBCF10B
:1058B0007F5F2EE05FEA9C0C4FEA0C1C4FEA3C0C29
:1058C000C10071F100414CEB50707047C90241EAD0
:1058D0005051C00218BF41F0010141F000414FEAB0
:1058E0006C50C0F10900212810D240EACC7CCCF1E8
:1058F000200C11FA0CF070F10040CCF1200C21FAD0
:105900000CF00CF0004C40EB0C0070474FEACC70F0
:105910007047490011F5001F04D84FEACC10FF3042
:10592000C0057047C817704780B55FF4E1310420A7
:10593000FDF77CF90020082805DA0021074A22F843
:105940001010401CF7E701BD044A22F8110070470F
:1059500080B51021014800F027F801BD7448FF1FF1
:1059600010B504004FF41671200000F001F810BDCE
:1059700038B504000D001A480088ADF80200194837
:105980000088ADF8000002220DF102010420FDF7AD
:1059900064FA2A0021000420FDF75FFA022269461A
:1059A0000420FDF75AFA31BD38B504000D000E4849
:1059B0000088ADF802000D480088ADF80000022212
:1059C0000DF102010420FDF748FA2A00210004200D
:1059D000FDF743FA022269460420FDF73EFA31BD85
:1059E000C6190000F21B0000463B00005E3B0000B1
:1059F000DFF800F02113FF1FDFF8981340B231F8F1
:105A0000201040B20128C0F26A8140B2162880F20C
:105A100066810022DFF880331A7089B23D2904DAEA
:105A20000022DFF874335A7077E089B2792904DAFA
:105A30000122DFF864335A706FE089B2B52904DAC5
:105A40000222DFF854335A7067E089B2F12904DA90
:105A50000322DFF844335A705FE089B2B1F5967FD4
:105A600004DC0422DFF830335A7056E089B2B1F515
:105A7000B47F04DC0522DFF820335A704DE089B290
:105A8000B1F5D27F04DC0622DFF80C335A7044E013
:105A900089B2B1F5F07F04DC0722DFF8FC325A70DE
:105AA0003BE089B2B1F5077F04DC0822DFF8E83279
:105AB0005A7032E089B2B1F5167F03DC0922B64B89
:105AC0005A702AE089B2B1F5257F03DC0A22B24B75
:105AD0005A7022E089B2B1F5347F03DC0B22AE4B61
:105AE0005A701AE089B2B1F5437F03DC0C22AA4B4D
:105AF0005A7012E089B2B1F5527F03DC0D22A64B39
:105B00005A700AE089B2B1F5617F03DC0E22A24B24
:105B10005A7002E00F22A04B5A7089B21A2903DA98
:105B200000229D4B9A7069E089B2332903DA012281
:105B3000994B9A7062E089B24C2903DA0222964BA3
:105B40009A705BE089B2652903DA0322924B9A705E
:105B500054E089B27E2903DA04228F4B9A704DE01B
:105B600089B2972903DA05228B4B9A7046E089B2F5
:105B7000B02903DA0622884B9A703FE089B2C9291E
:105B800003DA0722844B9A7038E089B2E22903DAFB
:105B90000822814B9A7031E089B2FB2903DA09228D
:105BA0007D4B9A702AE089B2B1F58A7F03DA0A2226
:105BB000794B9A7022E089B2B1F5967F03DC0B2213
:105BC000754B9A701AE089B2B1F5A37F03DA0C2203
:105BD000714B9A7012E089B2B1F5AF7F03DC0D22F0
:105BE0006D4B9A700AE089B2B1F5BC7F03DA0E22E0
:105BF000694B9A7002E00F22674B9A7089B21A299A
:105C000003DA0022644BDA7069E089B2332903DADF
:105C10000122614BDA7062E089B24C2903DA022278
:105C20005D4BDA705BE089B2652903DA03225A4BD7
:105C3000DA7054E089B27E2903DA0422564BDA7016
:105C40004DE089B2972903DA0522534BDA7046E01A
:105C500089B2B02903DA06224F4BDA703FE089B2ED
:105C6000C92903DA07224C4BDA7038E089B2E229FD
:105C700003DA0822484BDA7031E089B2FB2903DAF3
:105C80000922454BDA702AE089B2B1F58A7F03DA3E
:105C90000A22414BDA7022E089B2B1F5967F03DC2B
:105CA0000B223D4BDA701AE089B2B1F5A37F03DA1B
:105CB0000C22394BDA7012E089B2B1F5AF7F03DC08
:105CC0000D22354BDA700AE089B2B1F5BC7F03DAF8
:105CD0000E22314BDA7002E00F222F4BDA70704740
:105CE00010B50400200040B2FFF786FE2B48007874
:105CF00010F0FD00294908702848007850F0100085
:105D000026490870B8202649087026480078C00641
:105D1000FBD424480078C0F38100C0B20228F8D137
:105D20001D48C3781C4882781B4841781A4800787F
:105D3000FFF75EFE174864B200EB8400807810F035
:105D4000070019490870134864B200EB8400C0785A
:105D500010F01F0050F040001449087011480078FE
:105D60008006FBD50F4800784006FBD50C4800782C
:105D700010F03F000A4908700A480078C0F381001B
:105D8000C0B20328F8D1034864B230F82400C0B28E
:105D900010BD0000CC0FFF1F2410FF1F0140064064
:105DA00000400640064006400440064005400640CC
:105DB00001B4BDF80000002805D0BDF80000401E69
:105DC000ADF80000F5E701B0704780B50122012170
:105DD0001A20FCF71DF9012201211920FCF718F9FE
:105DE00023211A20FCF7A4FB23211920FCF7A0FB98
:105DF00001BD80B501207A49086001207949086019
:105E00004FF4C870FFF7D4FF002077490860774847
:105E10000068002804D1012073490860002016E0C2
:105E200001207149086000206D4908604FF4C87076
:105E3000FFF7BEFF00206B4908606C48006800282F
:105E400004D0012068490860002000E0012002BD64
:105E500080B50020634908600020614908604FF464
:105E6000C870FFF7A5FF01205E4908604FF4C870B5
:105E7000FFF79EFF01205A4908604FF4C870FFF7F2
:105E800097FF01BD80B50020564908604FF4C870E7
